:020000040800F2
:10000000C808002065020008D1590008D35900082B
:10001000D7590008DB590008DF590008000000002C
:10002000000000000000000000000000E35900088C
:10003000E559000800000000E7590008EB590008E6
:100040007F0200087F0200087F0200087F0200088C
:100050007F0200087F0200087F0200087F0200087C
:100060007F0200087F0200087F0200087F0200086C
:100070007F0200087F0200087F0200087F0200085C
:100080007F0200087F0200087F0200087F0200084C
:100090007F0200087F0200087F0200087F0200083C
:1000A0007F0200087F0200087F0200087F0200082C
:1000B0007F0200087F0200087F0200087F0200081C
:1000C0007F0200087F0200087F0200087F0200080C
:1000D0007F020008112900082B290008492900087F
:1000E0007F0200087F0200087F0200087F020008EC
:1000F0007F0200087F0200087F0200087F020008DC
:100100007F0200087F0200087F0200087F020008CB
:1001100067290008852900087F0200087F0200087F
:100120007F0200087F0200087F0200087F020008AB
:100130007F0200087F0200087F0200087F0200089B
:100140007F0200087F0200087F0200087F0200088B
:100150007F0200087F0200087F020008A129000832
:100160007F0200087F0200087F0200087F0200086B
:100170007F0200087F0200087F0200087F0200085B
:100180007F0200087F020008BF290008DD2900085F
:100190007F0200087F0200087F0200087F0200083B
:1001A0007F0200087F0200087F02000800F002F8CA
:1001B00000F049F80AA090E8000C82448344AAF1B8
:1001C0000107DA4501D100F03EF8AFF2090EBAE8B6
:1001D0000F0013F0010F18BFFB1A43F0010318477B
:1001E0006C9800008C980000103A24BF78C878C141
:1001F000FAD8520724BF30C830C144BF04680C602D
:10020000704700000023002400250026103A28BF74
:1002100078C1FBD8520728BF30C148BF0B60704778
:10022000662906F0BD87002070471FB506F0B3FFB2
:1002300005F078FF04000020002106F0B5FCE06026
:100240001FBD10B510BD06F069F81146FFF7EDFFB0
:1002500005F034FA06F087F803B4FFF7F2FF03BCA9
:1002600006F0C8F80948804709480047FEE7FEE75E
:10027000FEE7FEE7FEE7FEE7FEE7FEE7FEE7FEE756
:1002800004480549054A064B70470000055B000815
:10029000AD010008C8020020C8080020C8040020E2
:1002A000C804002032490143324A1160704770B5DA
:1002B000002100230F22C4781CB32E4C246804F4C0
:1002C000E064C4F5E064C4F30721C1F10404E3B2BF
:1002D0000A4144789C40E1B28478144021430C07E1
:1002E000210E254C05786155047804F01F05012482
:1002F000AC4005786D11AD0005F1E025C5F8004171
:1003000009E0047804F01F050124AC401B4D067879
:10031000761145F8264070BD194A0A400243154B34
:100320001B1F1A60704739B1124A121D126802432E
:10033000104B1B1D1A6006E00E4A121D1268824304
:100340000C4B1B1D1A607047042808D14FF0E021A8
:10035000096941F004014FF0E022116107E04FF01C
:10036000E021096921F004014FF0E022116170479A
:100370000000FA050CED00E000E400E080E100E0A0
:1003800080FFFF1FF648006840F00100F449086054
:100390000020F34908310860F1480068F14908403D
:1003A000EF490860F048091D0860F048EC498431C5
:1003B0000860ED481038091D0860E948006820F41D
:1003C0008020E74908600020E5490C310860E449D5
:1003D0008C31086070470021E14A921C117011466F
:1003E0000870704710B501460022002300204A1112
:1003F000012A02D1DA4C236808E0022A03D1D84C42
:100400007034236802E0D64C7434236801F01F0274
:10041000012494401C400CB1012000E0002010BDDC
:1004200038B5002000900024002500BF3120FFF7E0
:10043000D9FF05460098401C00900098B0F5A04FE9
:1004400001D0002DF2D03120FFF7CCFF08B10124FC
:1004500000E00024204638BD01460020C04A106854
:1004600020F0F80040EAC10010607047C049086001
:1004700070470021BA4A703211701170012802D001
:1004800004280AD104E00121B54A7032117005E058
:100490000521B34A7032117000E000BF00BF704701
:1004A000B4490860704770B5049C41EA8215012682
:1004B000C6EB530645EA0645054345EA0465A84EE2
:1004C000361D356070BDAA490866704710B58301B6
:1004D00043EA016343EA0273A14C8434236010BDF4
:1004E000A3498866704710B5830143EA016343EA74
:1004F00002739B4C8834236010BD9D490867704788
:100500009B49C864704702460020954B0833186821
:1005100020F0EC6042EA01031843914B0833186065
:100520007047024600208E4B0833186820F0784050
:1005300042EA010318438A4B0833186070470146AA
:100540000020874A0832106820F00300084310603A
:10055000704783480830006800F00C00704701467F
:1005600000207F4A0832106820F0F0000843106035
:100570007047014600207A4A0832106820F4E050A3
:1005800008431060704701460020754A0832106821
:1005900020F4604040EAC10010607047F0B50021CF
:1005A000002200240225002602236D4F08373F68F1
:1005B00007F00C0121B1042905D0082937D105E045
:1005C0006D4F076036E06D4F076033E0644F3F1DAD
:1005D0003F68C7F38056624F3F1D3F6807F03F03F7
:1005E0006EB1664FB7FBF3F7DFF874C10CF1040C82
:1005F000DCF800C0CCF3881C07FB0CF40CE05E4F69
:10060000B7FBF3F7DFF858C10CF1040CDCF800C0BD
:10061000CCF3881C07FB0CF4514F3F1D3F68C7F318
:1006200001477F1C7D00B4FBF5F7076002E0524FE5
:10063000076000BF00BF4A4F08373F6807F0F0016E
:1006400009094F4F7A5C0768D7404760444F083725
:100650003F6807F4E051890A494F7A5C4768D74000
:1006600087603F4F08373F6807F46041490B444FAC
:100670007A5C4768D740C760F0BD002100F4407243
:10068000B2F5407F0AD1364A0832116821F4F811D8
:100690003C4A02401143324A08321160304A7032FB
:1006A0001268C0F30B031A432D4B70331A60704766
:1006B00030494439086070472E4940390860704716
:1006C00031490860704701460020254A8C32106885
:1006D00020F01F004A1E1043214A8C3210607047E0
:1006E000014600201E4A8C32106820F4F8504A1E41
:1006F00040EA02201A4A8C321060704701460020FE
:10070000174A8C32106820F440100843106070477C
:1007100001460020124A8C32106820F44000084341
:1007200010607047014600200D4A8C32106820F49A
:10073000403008431060704714490860704739B171
:10074000074A303212680243054B30331A6006E024
:10075000034A303212688243014B30331A607047CB
:1007600000380240FFFFF6EA10300024003000207D
:1007700000004742800E47420024F40000127A0035
:1007800000000020FFFCFF0F5C014742E0114742E0
:1007900029B1934A12680243914B1A6004E0904ACF
:1007A000126882438E4B1A60704739B18C4A121D11
:1007B000126802438A4B1B1D1A6006E0884A121D0C
:1007C00012688243864B1B1D1A60704739B1844AF8
:1007D0000C3212680243824B0C331A6006E0804AE6
:1007E0000C32126882437E4B0C331A60704739B169
:1007F0007B4A103212680243794B10331A6006E0CC
:10080000774A103212688243754B10331A60704772
:1008100039B1734A243A12680243714B243B1A607F
:1008200006E06F4A243A126882436D4B243B1A60FB
:10083000704739B16A4A203A12680243684B203B3C
:100840001A6006E0664A203A12688243644B203BF5
:100850001A60704739B1624A1C3A12680243604B11
:100860001C3B1A6006E05E4A1C3A126882435C4BED
:100870001C3B1A60704739B1594A143A1268024356
:10088000574B143B1A6006E0554A143A12688243EB
:10089000534B143B1A60704739B1514A103A1268F1
:1008A00002434F4B103B1A6006E04D4A103A126863
:1008B00082434B4B103B1A60704739B1484A1C3297
:1008C00012680243464B1C331A6006E0444A1C324D
:1008D00012688243424B1C331A60704739B1404A58
:1008E0002032126802433E4B20331A6006E03C4A35
:1008F0002032126882433A4B20331A60704739B174
:10090000374A243212680243354B24331A6006E01A
:10091000334A243212688243314B24331A607047C1
:1009200039B12F4A2C32126802432D4B2C331A60F6
:1009300006E02B4A2C3212688243294B2C331A6072
:10094000704739B1264A303212680243244B3033A3
:100950001A6006E0224A303212688243204B30335C
:100960001A607047012808D11D493C31096841F0DF
:1009700008011B4A3C32116007E019493C31096803
:1009800021F00801164A3C321160704739B1144A0F
:10099000273A12780243124B273B1A7006E0104A9E
:1009A000273A127882430E4B273B1A7070470C4847
:1009B0004030006840F0807009494031086070475D
:1009C00001460020064A283A12680A400AB101206E
:1009D00000E0002070470249263908707047000087
:1009E0003438024010B504469848844208D10121A9
:1009F0000846FFF70DFF00210120FFF709FF76E011
:100A00009348844208D101210220FFF701FF002111
:100A10000220FFF7FDFE6AE08E48844208D10121E2
:100A20000420FFF7F5FE00210420FFF7F1FE5EE051
:100A30008948844208D101210820FFF7E9FE0021FE
:100A40000820FFF7E5FE52E08448844208D10121E6
:100A50001020FFF7DDFE00211020FFF7D9FE46E051
:100A60007F48844208D101212020FFF7D1FE0021D8
:100A70002020FFF7CDFE3AE07A48844208D10121D8
:100A80004020FFF7C5FE00214020FFF7C1FE2EE009
:100A90007548844208D101218020FFF7B9FE00216A
:100AA0008020FFF7B5FE22E07048844208D1012182
:100AB0008015FFF7ADFE0021A015FFF7A9FE16E097
:100AC0006B48844208D101214015FFF7A1FE0021A7
:100AD0006015FFF79DFE0AE06648844207D10121B8
:100AE0000015FFF795FE00212015FFF791FE10BDC0
:100AF000F0B50A4600210023002400BF3DE0012597
:100B000005FA01F3156805EA03049C4234D105682F
:100B10004F000326BE40B543056015794E00B54031
:100B20000668354305601579012D02D01579022D2F
:100B300016D185684F000326BE40B54385605579C0
:100B40004E00B540866835438560456801268E4075
:100B5000B5434560456896798E40B6B235434560E9
:100B6000C5684F000326BE40B543C560D5794E0029
:100B7000B540C6683543C560491C1029BFD3F0BDD8
:100B80004FF6FF7101600021017141718171C171E6
:100B9000704708B54FF480320092009A0A430092E1
:100BA000009AC261C161009AC261C2690092C269C1
:100BB000009208BD0246002013690B400BB10120D2
:100BC00000E0002070470146086980B27047024685
:100BD000002053690B400BB1012000E0002070475A
:100BE0000146486980B2704701837047418370476E
:100BF0000AB1018300E04183704741617047426957
:100C00004A4042617047F0B5002300244D07ED0EC5
:100C100002FA05F3CE1000F1200555F826504E07D4
:100C2000F70E0F26BE40B543CF1000F1200646F860
:100C30002750CE1000F1200555F8265045EA030450
:100C4000CE1000F1200545F82640F0BD000002401E
:100C50000004024000080240000C02400010024064
:100C60000014024000180240001C02400020024014
:100C7000002402400028024010B50446FA4884428D
:100C800008D101211020FFF707FE00211020FFF7F7
:100C900003FE57E0F548844209D101214804FFF7DB
:100CA000EAFD00214FF40030FFF7E5FD4AE0F0488F
:100CB000844209D101218804FFF7DDFD00214FF4B2
:100CC0008020FFF7D8FD3DE0EA48844209D10121A8
:100CD000C804FFF7D0FD00214FF40020FFF7CBFD43
:100CE00030E0E548844209D101210805FFF7C3FD42
:100CF00000214FF48010FFF7BEFD23E0DF4884425F
:100D000008D101212020FFF7C7FD00212020FFF797
:100D1000C3FD17E0DA48844209D101218807FFF7B3
:100D2000AAFD00214FF08040FFF7A5FD0AE0D5485D
:100D3000844207D101214005FFF79DFD0021600598
:100D4000FFF799FD10BD2DE9FF4705460E4600242B
:100D5000A14600BFA046B08900B100BF2C8A24F490
:100D60004054F08804432C82AC8941F20C608443E7
:100D7000B08831890843718908430443AC81AC8A47
:100D800024F44074B0890443AC826846FFF706FC43
:100D9000B548854202D0B948854202D1DDF80C90B1
:100DA00001E0DDF80890A88900F4004040B109EBAB
:100DB000C90000EB091031684900B0FBF1F707E00A
:100DC00009EBC90000EB091031688900B0FBF1F7AD
:100DD0006420B7FBF0F004012009642101FB1078C6
:100DE000A88900F4004040B1322000EBC800B0FBFD
:100DF000F1F000F00700044308E0322000EB081097
:100E00006421B0FBF1F000F00F0004432C81BDE839
:100E1000FF874FF41651016000218180C18001815C
:100E20000C21418100218181704710B502460020CC
:100E3000108A20F470600B884C8823438C882343ED
:100E4000CC8823431843108210BD002101804180CB
:100E50008180C180704721B1828942F40052828131
:100E600004E082894DF6FF731A4082817047028B3D
:100E700002F47F420283028B0A430283704721B14E
:100E8000828942F40042828103E08289C2F30E0229
:100E90008281704721B1828A42F40062828204E03A
:100EA000828A4FF2FF731A4082827047C1F30802B0
:100EB0008280704701468888C0F308007047028A24
:100EC0004FF6F0731A400282028A0A430282704788
:100ED00021B1828942F00202828104E082894FF6C8
:100EE000FD731A408281704782894FF2FF731A4066
:100EF000828182890A4382817047028A4FF6DF73BA
:100F00001A400282028A0A430282704721B1028A91
:100F100042F48042028204E0028A4BF6FF731A40D8
:100F200002827047818941F001018181704721B1BE
:100F3000828A42F00802828204E0828A4FF6F773C6
:100F40001A4082827047028BD2B20283028B42EA3D
:100F500001220283704721B1828A42F020028282FC
:100F600004E0828A4FF6DF731A408282704721B113
:100F7000828A42F01002828204E0828A4FF6EF7386
:100F80001A4082827047828A4FF6FB731A4082822F
:100F9000828A0A438282704721B1828A42F0020229
:100FA000828204E0828A4FF6FD731A408282704783
:100FB0001AB1838A0B43838202E0838A8B43838244
:100FC0007047F0B50346002400260025002040F6B7
:100FD0006A17B94200D100BF1846C1F3421401F0AC
:100FE0001F06012707FA06F5012C01D10C3004E099
:100FF000022C01D1103000E014301AB107682F43E1
:10100000076002E00768AF430760F0BD02460020BA
:10101000B1F5007F00D100BF13880B400BB1012058
:1010200000E00020704701F40072B2F5007F00D1AB
:1010300000BFCA430280704770B5024600240023F7
:101040000025002040F66A16B14200D100BFC1F36E
:10105000421501F01F03012606FA03F3012D13D1F7
:101060009689334017E00000001001400044004022
:1010700000480040004C0040005000400014014077
:1010800000780040007C0040022D02D1168A3340D7
:1010900001E0968A33400C12012606FA04F4168801
:1010A000344013B10CB1012000E0002070BD10B538
:1010B0000022002340F66A14A14200D100BF0A12A8
:1010C00001249440A3B2DC43048010BD10B5044653
:1010D000FB48844208D101218014FFF7DDFB002189
:1010E000A014FFF7D9FB3CE0F648844208D1012167
:1010F0000014FFF7C0FB00212014FFF7BCFB30E019
:10110000F148844208D10121C013FFF7B4FB00214C
:10111000E013FFF7B0FB24E0EC48844208D1012142
:101120004014FFF7B9FB00216014FFF7B5FB18E08E
:10113000E748844209D101210805FFF7ADFB0021F2
:101140004FF48010FFF7A8FB0BE0E248844208D17F
:1011500001214805FFF7A0FB00214FF40010FFF725
:101160009BFB10BD10B50022028802F441520B888F
:101170004C8823438C882343CC8823430C89234306
:101180004C8923438C892343CC8923431A4302800F
:10119000838B4FF2FF74234083830B8A038210BD3D
:1011A0002DE9F04F0025022300244FF00109002211
:1011B0000026002794469046B0F81CA04FF2400B42
:1011C0000AEA0B0AA0F81CA04FF0020AA0F820A01F
:1011D000858BD1F808A0BAF1020F01D100BF82E0DF
:1011E000B1F804A0BAF1000F02D14FF0010901E0FB
:1011F0004FF00209DFF8E0A2DAF800A00AF4000AD2
:10120000BAF1000F09D0DFF8D0A2DAF800A02AF472
:10121000000ADFF8C4B2CBF800A0DFF8BCA20AF1E4
:101220007C0ADAF800A0CAF3881CDFF8ACA20AF145
:101230007C0ADAF800A0CAF30278DFF89CA2AAF1CF
:10124000040ADAF800A00AF03F07DFF88CA2AAF13E
:10125000040ADAF800A00AF4800ABAF5800F08D16F
:10126000DFF878A2BAFBF7FA0AFB0CFABAFBF8F639
:1012700007E0DFF86CA2BAFBF7FA0AFB0CFABAFB3C
:10128000F8F6B1F806A0BAF5007F0ED14FEA162A9B
:101290000AEB8A0A4FEA4A0AD1F808B0BAFBFBFA0D
:1012A0000AF1050A1FFA8AF20FE04FEA491AB6FB63
:1012B000FAFA0AEB8A0A4FEA4A0AD1F808B0BAFBEE
:1012C000FBFA0AF1050A1FFA8AF24FF00A0AB2FB8A
:1012D000FAF202F00104A2EB040ACAF34F034FF63C
:1012E000FF7A0AEA0424022B01DBFF2B01DD022333
:1012F0000024B1F806A04AEA040A4AEA030AA0F860
:1013000020A0B1F804A0B1F80CB04AEA0B0AB1F879
:1013100002B04AEA0B0AB1F800B04AEA0B0A4AF4F2
:10132000006A4AEA05058583BDE8F08F0021018047
:1013300041808180C180018141818181C1810721FA
:10134000018270470021018041808180C18002219B
:10135000816000218181704721B1028842F0400202
:10136000028004E002884FF6BF731A400280704783
:1013700021B1828B42F48062828304E0828B4FF63B
:10138000FF331A408283704702884FF2FF731A407E
:10139000028002880A4302807047B1F5804F04D171
:1013A000028842F48042028004E002884BF6FF7318
:1013B0001A40028070474FF6FF62914204D00288C3
:1013C00042F48072028004E002884FF6FF631A4004
:1013D0000280704721B1828842F00402828004E0DA
:1013E00082884FF6FB731A408280704721B1828851
:1013F00042F01002828004E082884FF6EF731A40B8
:101400008280704730B500220023848B4FF2400564
:101410002C40848302240484828B0C88B4F5007FE2
:1014200001D00C8814B94FF4807308E00C88B4F52F
:10143000407F03D00C88B4F5807F00D100238C88D6
:101440008D892C434D882C431C4344F40064224373
:10145000828330BD0146888970478181704721B100
:10146000028842F40052028004E002884DF6FF73C5
:101470001A4002807047018841F480510180704712
:1014800002460020012901D0108B00E0908A7047AD
:101490000146088A70471AB183880B43838002E0B3
:1014A00083888B438380704730B5002400230C1160
:1014B0000125A540ABB2AAB185881D43858014E003
:1014C0000030014000380040003C00400034014042
:1014D00000500140005401400838024000127A00D8
:1014E0000024F40085889D43858030BD024600209D
:1014F00013890B400BB1012000E000207047CA4364
:1015000002817047F0B50246002000240023002528
:1015100001F00F070126BE40B4B20B1101269E4018
:10152000B3B2968806EA03051689264016B10DB1B6
:10153000012000E00020F0BD10B5002201F00F04F2
:101540000123A3409AB2D343038110BD10B50446D2
:10155000FE48844208D101210846FFF79DF9002189
:101560000120FFF799F99DE0B4F1804F08D10121E6
:101570000846FFF780F900210120FFF77CF991E090
:10158000F348844208D101210220FFF774F90021B9
:101590000220FFF770F985E0EE48844208D101216E
:1015A0000420FFF768F900210420FFF764F979E0CF
:1015B000E948844208D101210820FFF75CF90021A5
:1015C0000820FFF758F96DE0E448844208D1012172
:1015D0001020FFF750F900211020FFF74CF961E0CF
:1015E000DF48844208D101212020FFF744F900217F
:1015F0002020FFF740F955E0DA48844208D1012164
:101600000220FFF749F900210220FFF745F949E0E0
:10161000D548844209D101210804FFF73DF9002192
:101620004FF48030FFF738F93CE0D048844209D1CC
:1016300001214804FFF730F900214FF40030FFF793
:101640002BF92FE0CA48844209D101218804FFF711
:1016500023F900214FF48020FFF71EF922E0C5484E
:10166000844208D101214020FFF705F900214020E4
:10167000FFF701F916E0C048844208D1012180201B
:10168000FFF7F9F800218020FFF7F5F80AE0BB48E2
:10169000844207D101218015FFF7EDF80021A01544
:1016A000FFF7E9F810BD00220288A84B98420ED03F
:1016B000AC4B98420BD0B0F1804F08D0A44B98426D
:1016C00005D0A44B984202D0A34B984204D14FF6C8
:1016D0008F731A404B881A43A04B984207D0A04BF7
:1016E000984204D04FF6FF431A400B891A430280F8
:1016F0004B68C3620B880385944B984202D0994B88
:10170000984201D18B7A03860123838270474FF080
:10171000FF31416000210180018141808172704769
:101720000185828270470A46002101884FF68F7337
:10173000194011430180704741627047C162704790
:101740000146486A70470146088D704721B10288FA
:1017500042F00202028004E002884FF6FD731A4054
:101760000280704721B1028842F00402028004E046
:1017700002884FF6FB731A400280704721B102883D
:1017800042F08002028004E002884FF67F731A4024
:101790000280704702884FF6F7731A400280028871
:1017A0000A430280704702884FF6FF431A400280C6
:1017B00002880A430280704721B1028842F0010288
:1017C000028004E002884FF6FE731A4002807047E0
:1017D00070B5002400220023058C4FF6FE763540BC
:1017E0000584028C8388048B4FF68F752C40B51EC0
:1017F0002C400D882C43751E2A408D892A434D8824
:101800002A43524DA84202D0564DA84213D14FF65A
:10181000F7752A40CD892A434FF6FB752A408D88FB
:101820002A434FF6FF652B404FF6FF552B400D8A9C
:101830002B434D8A2B43838004838D684563028448
:1018400070BD70B5002400220023058C4FF6EF76A2
:1018500035400584028C8388048B48F6FF752C4044
:101860004FF6FF452C400D884FF6FF7606EA05251A
:101870002C434FF6DF752A408D8906EA05152A4369
:101880004D8806EA05152A43304DA84202D0354D51
:10189000A8421DD14FF67F752A40CD894FF6FF76BD
:1018A00006EA05152A434FF6BF752A408D8806EAD9
:1018B00005152A434FF6FF352B404FF2FF752B409D
:1018C0000D8A06EA85052B434D8A06EA85052B43DA
:1018D000838004838D688563028470BD70B50024A5
:1018E00000220023058C4FF6FF6635400584028CEC
:1018F0008388848B4FF68F752C404FF6FC752C40F7
:101900000D882C434FF6FF552A408D894FF6FF7600
:1019100006EA05252A434D8806EA05252A430B4D8C
:10192000A84202D00F4DA84238D14FF2FF752A408D
:10193000CD894FF6FF7606EA05252A434FF6FF3597
:101940002A408D8806EA05252A4319E00000014057
:101950000004004000080040000C0040001000405F
:1019600000140040000401400040014000440140D8
:101970000048014000180040001C004000200040CA
:101980004EF6FF752B404DF6FF752B400D8A06EA8B
:1019900005152B434D8A06EA05152B438380848366
:1019A0008D68C563028470BD70B5002200230024D9
:1019B000058C4EF6FF7635400584038C8488828B37
:1019C00048F6FF752A404FF6FF452A400D884FF62E
:1019D000FF7606EA05252A434DF6FF752B408D89D3
:1019E00006EA05352B434D8806EA05352B43FE4DA7
:1019F000A84202D0FD4DA84208D14BF6FF752C40FD
:101A00000D8A4FF6FF7606EA85152C438480828383
:101A10008D680564038470BD002101804180818050
:101A200081608181C18101824182704770B5034626
:101A3000002000241846183001258D40ACB21D8CC2
:101A4000A5431D8409B108290AD100EB610005688E
:101A50004FF68F76354005600568154305600FE049
:101A60000D1FC5F34E052844056848F6FF7635403E
:101A7000056005684FF6FF7606EA022635430560E5
:101A800070BD4163704781637047C16370470164F3
:101A900070470A460021018B4FF68F73194011439E
:101AA000018370470A460021018B48F6FF731940F5
:101AB0004FF6FF7303EA02231943018370470A4676
:101AC0000021818B4FF68F7319401143818370473A
:101AD0000A460021818B48F6FF7319404FF6FF73C9
:101AE00003EA02231943818370470A460021018BD0
:101AF0004FF6F77319401143018370470A460021DE
:101B0000018B4FF2FF7319404FF6FF7303EA022374
:101B10001943018370470A460021818B4FF6F77302
:101B200019401143818370470A460021818B4FF28F
:101B3000FF7319404FF6FF7303EA022319438183B1
:101B400070470A460021018B4FF6FB731940114381
:101B5000018370470A460021018B4FF6FF3319407D
:101B60004FF6FF7303EA02231943018370470A46C5
:101B70000021818B4FF6FB7319401143818370471D
:101B80000A460021818B4FF6FF3319404FF6FF7351
:101B900003EA02231943818370470A460021018B1F
:101BA0004FF67F7319401143018370470A460021A5
:101BB000018BC1F30E014FF6FF7303EA02231943B1
:101BC000018370470A460021818B4FF67F731940CD
:101BD0001143818370470A460021818BC1F30E01B6
:101BE0004FF6FF7303EA02231943818370470A46C5
:101BF0000021018C4FF6FD73194011430184704799
:101C00000A460021018C4FF6F773194011430184F5
:101C100070470A460021018C4FF6DF7319404FF6DA
:101C2000FF7303EA02131943018470470A46002137
:101C3000018C4FF67F7319404FF6FF7303EA0213CE
:101C40001943018470470A460021018C4FF6FF5367
:101C500019404FF6FF7303EA0223194301847047CA
:101C60000A460021018C4FF2FF7319404FF6FF73B3
:101C700003EA02231943018470470A460021018CBC
:101C80004DF6FF7319404FF6FF7303EA0233194311
:101C90000184704730B5002301248C40A3B2048C2A
:101CA0009C430484048C02FA01F5ADB22C430484F5
:101CB00030BD30B5002304248C40A3B2048C9C4377
:101CC0000484048C02FA01F5ADB22C43048430BDC7
:101CD000828B4FF2FF331A408283828B4FF6FF7361
:101CE00003EA01231A4382837047F0B50C46154678
:101CF000002100220026078C4EF6FF7C07EA0C0725
:101D00000784818B028C4FF6FF7707EA043640F692
:101D1000FF4739404FF6FF7707EA052739434FF66B
:101D2000FF7707EA0337394345F6FF773A4046F431
:101D300080573A4381830284F0BD828B4FF6F37360
:101D40001A408283828B0A4382837047F0B50C4627
:101D50001546002100220026078C4FF6FF6C07EA8B
:101D60000C070784818B028C4FF6FF7707EA042665
:101D70004FF60C7739404FF6FF7707EA03172F43EA
:101D800039434FF2FF573A4046F480773A43818314
:101D90000284F0BD028B4FF2FF331A400283028BA4
:101DA0004FF6FF7303EA01231A4302837047F0B52D
:101DB0000C461546002100220026078C4FF6EF7CCA
:101DC00007EA0C070784018B028C4FF6FF7707EABE
:101DD000041640F6FF4739404FF6FF7707EA03370E
:101DE00039434FF6FF7703E0000001400004014053
:101DF00007EA052739434FF65F773A4046F0100768
:101E00003A4301830284F0BD028B4FF6F3731A400C
:101E10000283028B0A4302837047F0B50C461546D5
:101E200000210022068C4FF6FE773E400684018B8F
:101E3000028C4FF60C7631407E1C06EA03162E43C8
:101E400031434FF6F576324044F0010632430183C8
:101E50000284F0BD70B505460C46208850B9238930
:101E6000A28861882846FFF7D8FFE1882846FFF757
:101E7000CBFF25E0208804280AD12389A288618825
:101E80002846FFF794FFE1882846FFF783FF17E015
:101E9000208808280AD12389A28861882846FFF76C
:101EA00055FFE1882846FFF748FF09E02389A2880B
:101EB00061882846FFF719FFE1882846FFF708FFE9
:101EC00070BD002101804180012181800021C180FD
:101ED000018170472DE9F04105460C460026012797
:101EE000608808B9022600E00026A088012801D1F8
:101EF000022700E001272088A0B92389A2886188F1
:101F00002846FFF78AFFE1882846FFF77DFF2389EF
:101F10003A4631462846FFF74AFFE1882846FFF750
:101F200039FF13E02389A28861882846FFF73FFF25
:101F3000E1882846FFF72EFF23893A463146284696
:101F4000FFF76BFFE1882846FFF75EFFBDE8F081F1
:101F50000146486B70470146886B70470146C86B65
:101F600070470146086C70470A884B881A438B8873
:101F70001A43CB881A430B891A434B891A438B891E
:101F80001A43A0F8442070470021018041808180DD
:101F9000C180018141818181704731B1B0F8442015
:101FA00042F40042A0F8442005E0B0F84420C2F317
:101FB0000E02A0F84420704721B1828842F004024A
:101FC000828004E082884FF6FB731A40828070475B
:101FD00021B1828842F00102828004E082884FF6BB
:101FE000FE731A40828070471AB183890B43838144
:101FF00002E083898B438381704781827047024668
:102000000020138A0B400BB1012000E00020704734
:10201000CA430282704730B50246002000230024E4
:10202000158A05EA0103958905EA010413B10CB18B
:10203000012000E0002030BDCA430282704741EA1F
:102040000203A0F8483070471AB183890B4383819B
:1020500002E083898B438381704721B1828842F0FB
:102060000802828004E082884FF6F7731A4082806B
:10207000704701894FF6F8721140018170470A4696
:10208000002101894FF68F73194011430181704778
:1020900030B504460D4629462046FFF7F0FF20895B
:1020A00040F00700208130BD2DE9F04104460D4687
:1020B00016461F46602D06D13B460122314620467A
:1020C000FFF775FE05E03B46012231462046FFF74B
:1020D000A4FE29462046FFF7D2FF208940F00700E2
:1020E0002081BDE8F08130B50C4600210189C9B2DC
:1020F0004FF6FF7505EA0325154325432943018162
:1021000030BD2DE9F04105460E461746984600249D
:1021100043463A4631462846FFF7E5FF2C894FF6FD
:10212000F870044044F007044FF68F70044044F008
:1021300070042C81BDE8F081F0B504460D461646CA
:102140001F463B46324629462046FFF7CCFF2089F2
:1021500040F480402081F0BD82884FF68F731A4092
:10216000828082880A438280704702894FF6F87322
:102170001A40028102890A430281704702894FF6A0
:102180007F731A40028102890A4302817047F0B5C9
:102190000C4615461E460021002200230189028BB1
:1021A000038C4FF6F877394021434FF6FC473A400D
:1021B00040F201173A434FF6DD773B404FF6FF7789
:1021C00007EA06172F433B43018102830384F0BDD6
:1021D00021B1828842F08002828004E082884FF63A
:1021E0007F731A4082807047A0F85010704700003B
:1021F0000146FE4A914200D10020FD4A914200D1A1
:102200000120FC4A914200D10220FB4A914200D1B8
:102210000420FA4A914200D10520F94A914200D1A6
:102220000620F84A914200D10720F74A914200D196
:102230000820704710B504460121C807FEF7C6FA0A
:102240009CB901211020FEF77AFA08220121EF48FB
:10225000FEF7D9FC08220021EC48FEF7D4FC03204D
:10226000EB490860E948FEF743FC10BD10B5044691
:1022700001218807FEF7AAFAACB901211020FEF768
:102280005EFA08221146E148FEF7BDFC082207214C
:10229000DE48FEF7B8FC4FF4C070DD490860DB484B
:1022A000FEF726FC15E0012C13D101212020FEF7BA
:1022B00046FA08220721D748FEF7A5FC0822062186
:1022C000D448FEF7A0FCC020D1490860D148FEF7F1
:1022D0000FFC10BD10B5044601212020FEF787FA3F
:1022E000A4B901210420FEF72AFA08220621CA48CF
:1022F000FEF789FC08220721C748FEF784FCC020AE
:10230000C3490860C448FEF7F3FB16E0012C14D162
:1023100001214020FEF713FA08220E21BF48FEF7E4
:1023200072FC08220921BD48FEF76DFC4FF4844081
:10233000B7490860B948FEF7DBFB10BD10B504468D
:1023400001210805FEF742FAF4B901210420FEF745
:10235000F6F901210820FEF7F2F908220C21AE4817
:10236000FEF751FC08220221AD48FEF74CFC4FF469
:102370008050A7490860A848FEF7BAFB0420A4498A
:102380000860A748FEF7B4FB10BD10B50446012154
:10239000C804FEF71BFAA4B901210846FEF7CFF9DD
:1023A000082200219F48FEF72EFC082201219D48AB
:1023B000FEF729FC0320964908609A48FEF798FB2F
:1023C00016E0012C14D101210420FEF7B8F90822EF
:1023D0000A219148FEF717FC08220B218E48FEF7D0
:1023E00012FC4FF440608A4908608B48FEF780FB7E
:1023F00010BD10B5044601218804FEF7E7F9ACB919
:1024000001210220FEF79BF907220A218648FEF7E8
:10241000FAFB07220B218448FEF7F5FB4FF44060DE
:102420007B4908608048FEF763FB2EE0012C15D144
:1024300001210420FEF783F907220A217648FEF7DE
:10244000E2FB07220B217448FEF7DDFB4FF44060EE
:102450006F4908607048FEF74BFB16E0022C14D160
:1024600001210820FEF76BF9072208216C48FEF7CE
:10247000CAFB072209216A48FEF7C5FB4FF44070EA
:10248000634908606648FEF733FB10BD10B504468B
:1024900001214804FEF79AF9A4B901210846FEF784
:1024A0004EF9072202215F48FEF7ADFB0722032108
:1024B0005C48FEF7A8FB0C20554908605948FEF718
:1024C00017FB15E0012C13D101210820FEF737F985
:1024D000072205215248FEF796FB072206215048A5
:1024E000FEF791FB60204A4908604D48FEF700FB6B
:1024F00010BD10B5044601211020FEF778F9ACB9E3
:1025000001210846FEF71BF9072209214548FEF77D
:102510007AFB07220A214348FEF775FB4FF4C0609F
:102520003B4908603F48FEF7E3FA15E0012C13D160
:1025300001210220FEF703F9072206213A48FEF79F
:1025400062FB072211463848FEF75DFBC020304988
:1025500008603548FEF7CCFA10BD70B586B0044669
:102560000D46164602202A49087100208871012074
:10257000C8710320487102961C48844212D1284633
:10258000FFF7B7FF25208DF804000020ADF81400F8
:102590000C20ADF812000020ADF81000ADF80E00D0
:1025A000ADF80C001248844212D12846FFF76EFFA6
:1025B00026208DF804000020ADF814000C20ADF8A2
:1025C00012000020ADF81000ADF80E00ADF80C00C0
:1025D0000848844233D12846FFF70BFF27208DF8A7
:1025E00004000020ADF814000C201FE00010014092
:1025F0000044004000480040004C004000500040B3
:102600000014014000780040007C004000100240AF
:102610007000002000140240000802400018024030
:10262000000C02400000024000040240ADF812001D
:102630000020ADF81000ADF80E00ADF80C00EF482A
:10264000844212D12846FFF7A0FE34208DF8040002
:102650000020ADF814000C20ADF812000020ADF8F9
:102660001000ADF80E00ADF80C00E548844212D120
:102670002846FFF763FE35208DF804000020ADF8F2
:1026800014000C20ADF812000020ADF81000ADF8D9
:102690000E00ADF80C00DB48844212D12846FFF74B
:1026A00019FE47208DF804000020ADF814000C201E
:1026B000ADF812000020ADF81000ADF80E00ADF836
:1026C0000C00D148844212D12846FFF7CFFD52209A
:1026D0008DF804000020ADF814000C20ADF81200B5
:1026E0000020ADF81000ADF80E00ADF80C00C748A2
:1026F000844212D12846FFF79DFD53208DF8040037
:102700000020ADF814000C20ADF812000020ADF848
:102710001000ADF80E00ADF80C0000212046FEF7C9
:102720009AFB2046FEF7A8FA02A92046FEF70BFB0B
:1027300001212046FEF78FFB012240F22551204661
:10274000FEF73FFC01208DF8070006208DF80500FC
:102750002046FFF74DFD8DF8060001A8FDF7A7FD07
:1027600006B070BD0146AA4A914200D1A948AA4AC2
:10277000914200D1A948AA4A914200D1A9489F4A52
:10278000914200D1A8489E4A914200D1A7489D4A53
:10279000914200D1A6489C4A914200D1A5489B4A4B
:1027A000914200D1A448704730B504460025204628
:1027B000FFF7D8FF0346D88800280FDD588999888D
:1027C000884201D10020588159891868405C45B27F
:1027D0005889401C5881D888401ED880E8B230BD46
:1027E00010B504462046FFF7BDFF0346D8889988F8
:1027F000884201D1012010BD0020FCE7F0B507465A
:102800000D463846FFF7AEFF0346DE885C890DE0D3
:102810009888A04200D100241868005DA84201D128
:102820000120F0BD601C84B2701E86B2002EEFDC69
:102830000020F6E710B503461846FFF793FF04465D
:10284000E08808B9012010BD0020FCE7F0B507467C
:102850000D46164600243846FFF7ECFF40B90A2122
:102860003846FFF7CBFF28B93846FFF7B9FF08B95C
:102870000020F0BD0BE03846FFF796FF2855285D95
:102880000A2802D1601C84B204E0601C84B2701E6D
:10289000A042F0DC00BF002028552046E9E710B533
:1028A00004462046FFF75EFF03460020D8801881CB
:1028B000588110BD13B5044600BF80212046FEF7A5
:1028C000A5FB0028F9D09DF80400A0801CBD70B5C0
:1028D00005460C4604E014F8011B2846FFF7EAFF02
:1028E00020780028F7D170BDC28883889A420EDA1A
:1028F000028983889A4201D10022028103890268F9
:10290000D1540289521C0281C288521CC280704775
:1029100010B540F225513E48FEF78EFB20B13C49F0
:102920008988C8B202F098FF10BD10B540F2255159
:102930003948FEF781FB30B13748001D0088C1B22D
:102940003648FFF7D1FF10BD10B540F2255134488D
:10295000FEF772FB30B13248001D0088C1B2314829
:10296000FFF7C2FF10BD10B540F225512348FEF716
:1029700063FB30B12148001D0088C1B22A48FFF72F
:10298000B3FF10BD10B540F225511D48FEF754FBB2
:1029900028B11B488088C1B22448FFF7A5FF10BDAD
:1029A00010B540F225511748FEF746FB30B11548E7
:1029B000001D0088C1B21E48FFF796FF10BD10B57C
:1029C00040F225511048FEF737FB30B10E48001D8C
:1029D0000088C1B21748FFF787FF10BD10B540F25D
:1029E00025510A48FEF728FB30B10848001D008831
:1029F000C1B21148FFF778FF10BD0000004C004045
:102A0000005000400014014000780040007C00406D
:102A10000010014010000020004400401C00002075
:102A20000048004028000020340000204000002022
:102A30004C000020580000206400002010B504461F
:102A40004FF40051FD48FEF7CFF80421FC48FEF793
:102A5000CDF82146FB4801F0A4F80421F848FEF720
:102A6000C3F810BD10B504464FF40051F348FEF70B
:102A7000BDF80421F248FEF7B9F82146F14801F00B
:102A800090F80421EE48FEF7AFF810BD2DE9F041B3
:102A900004460D4616461F462A20FFF7E3FF201284
:102AA000FFF7CCFFE0B2FFF7C9FF3012FFF7C6FF18
:102AB000F0B2FFF7C3FF2B20FFF7D4FF2812FFF778
:102AC000BDFFE8B2FFF7BAFF3812FFF7B7FFF8B261
:102AD000FFF7B4FFBDE8F0812DE9F0410446260A76
:102AE000E7B2D9484088401E83B2D7480088401ECC
:102AF00082B200210846FFF7C9FF2C20FFF7B2FF82
:102B0000002506E0F0B2FFF799FFF8B2FFF796FF55
:102B10006D1CB5F5963FF5D3BDE8F08101B502E037
:102B20000098401E009000980028F9D108BD10B50B
:102B30004FF48051C148FEF757F80120FFF792FF8C
:102B4000C248FFF7EBFFCB20FFF78CFF3920FFF7E0
:102B500075FF2C20FFF772FF0020FFF76FFF342076
:102B6000FFF76CFF0220FFF769FFCF20FFF77AFF26
:102B70000020FFF763FFC120FFF760FF3020FFF761
:102B80005DFFE820FFF76EFF8520FFF757FF00206D
:102B9000FFF754FF7820FFF751FFEA20FFF762FFAD
:102BA0000020FFF74BFF0020FFF748FFED20FFF765
:102BB00059FF6420FFF742FF0320FFF73FFF122079
:102BC000FFF73CFF8120FFF739FFF720FFF74AFFAF
:102BD0002020FFF733FFC020FFF744FF2320FFF73B
:102BE0002DFFC120FFF73EFF1020FFF727FFC52074
:102BF000FFF738FF3E20FFF721FF2820FFF71EFFD9
:102C0000C720FFF72FFF8620FFF718FF3620FFF7BA
:102C100029FF4820FFF712FF3A20FFF723FF552036
:102C2000FFF70CFFB120FFF71DFF0020FFF706FFA5
:102C30001820FFF703FFB620FFF714FF0820FFF767
:102C4000FDFE8220FFF7FAFE2720FFF7F7FEF220B5
:102C5000FFF708FF0020FFF7F1FE2A20FFF702FF31
:102C60000020FFF7EBFE0020FFF7E8FE0020FFF753
:102C7000E5FEEF20FFF7E2FE2B20FFF7F3FE00203A
:102C8000FFF7DCFE0020FFF7D9FE0120FFF7D6FE9C
:102C90003F20FFF7D3FE2620FFF7E4FE0120FFF7D9
:102CA000CDFEE020FFF7DEFE0F20FFF7C7FE31204C
:102CB000FFF7C4FE2B20FFF7C1FE0C20FFF7BEFE7E
:102CC0000E20FFF7BBFE0820FFF7B8FE4E20FFF7EF
:102CD000B5FEF120FFF7B2FE3720FFF7AFFE072069
:102CE000FFF7ACFE1020FFF7A9FE0320FFF7A6FEBA
:102CF0000E20FFF7A3FE0920FFF7A0FE0020FFF73C
:102D00009DFEE120FFF7AEFE0020FFF797FE0E20AC
:102D1000FFF794FE1420FFF791FE0320FFF78EFECD
:102D20001120FFF78BFE0720FFF788FE3120FFF709
:102D300085FEC120FFF782FE4820FFF77FFE0820B6
:102D4000FFF77CFE0F20FFF779FE0C20FFF776FEE1
:102D50003120FFF773FE3620FFF770FE0F20FFF7DC
:102D60006DFE1120FFF77EFE3948FFF7D7FE2920C0
:102D7000FFF778FE2C20FFF775FE10BD1CB5012172
:102D80000820FDF7DCFC4FF40050009002208DF885
:102D9000050001208DF8040000208DF806008DF854
:102DA000070069462548FDF7A3FE01210420FDF731
:102DB000C6FC0420009069462148FDF799FE0121D8
:102DC0000820FDF7BCFC01208DF8070000030090EF
:102DD00069461A48FDF78CFE04211948FDF704FFE7
:102DE0000021184800F076FEFFF7A1FE00201949E7
:102DF000088019490880F020134908804FF4A0701A
:102E00004880012008714FF6FF70FFF765FE1CBD7A
:102E100070B505460E46144633462A4631462846C6
:102E2000FFF734FE2C20FFF71DFEC4F30720FFF749
:102E300005FEE0B2FFF702FE70BD0000000C02408C
:102E400000080240005001407C00002080841E00E9
:102E500040420F007A0000207800002010B50446A0
:102E60003620FFF7FFFD1CB95820FFF7E7FD10E003
:102E7000012C03D18820FFF7E1FD0AE0022C03D1E9
:102E80002820FFF7DBFD04E0032C02D1E820FFF748
:102E9000D5FD0CB1012C08D1F020FE4908804FF47B
:102EA000A07048800120087107E04FF4A070F94934
:102EB0000880F02048800020087110BD2DE9F05FE7
:102EC0000746884691461C46DDF82CA0F24807804C
:102ED000F248A0F800802078EF4909880844ED49BD
:102EE0000988884208DD6078EC4909880844EB4984
:102EF00008800020E849088000252DE0A9F1200085
:102F0000617800FB0150616831F810B000261FE0C5
:102F10000BFA06F000F4004058B1E04A12882A4447
:102F200091B2DD4A1288324490B20A9AFFF770FFDC
:102F30000DE00AF0004050B9D84A12882A4491B2F4
:102F4000D54A1288324490B25246FFF761FF761C90
:102F50002078B042DCD86D1C6078A842CED82078AA
:102F6000CD4909880844CC490880BDE8F09F2DE987
:102F7000FC4705460E4614461F46DDE90A9AA84658
:102F8000C5480580C548068027E020780A2813D167
:102F90007878401CC14909880844C0490880607895
:102FA0000D2804D10020BC490880641C02E0BA4806
:102FB000A0F80080641C10E020780D2801D1641C6A
:102FC0000BE0CDE9009A14F8012B3B46B348018889
:102FD000B1480088FFF772FF00BF20780028D4D1E5
:102FE000BDE8FC8770B500244D781D8002E00D78A7
:102FF0002544ACB210F8016B002EF8D1148070BDDE
:103000002DE9FC5F04460D4616461F46A148008880
:10301000A04203DC9F480088401E84B29D4800887F
:10302000B04203DC9B480088401E86B29948408825
:10303000A84203DC97484088401E85B295484088E6
:10304000B84203DC93484088401E87B2B44201DA9C
:10305000301B00E0A01B0FFA80FABD4201DA781B9A
:1030600000E0E81B0FFA80F8B44201DA012001E029
:103070004FF0FF300190BD4201DA012001E04FF036
:10308000FF300090C24501DD514601E0C8F100016A
:10309000084601EBD07149100FFA81F91FE029466B
:1030A00020460C9AFFF7B4FEB44202D1BD4200D1D3
:1030B00016E0CB46D946CAF10000834506DDA9EBF0
:1030C00008000FFA80F90198204484B2C34506DA5B
:1030D00009EB0A000FFA80F90098284485B2DEE770
:1030E00000BFBDE8FC9F2DE9F84305460E46174694
:1030F0009846089C33463A46314628460094FFF7E6
:103100007FFF43462A46314628460094FFF778FF62
:1031100043463A46314638460094FFF771FF43462E
:103120003A46414628460094FFF76AFFBDE8F88317
:103130002DE9F84306460C4617461D46DDF820806B
:1031400009E023463A4621463046CDF80080FFF795
:1031500057FF601C84B2AC42F3DBBDE8F8832DE975
:10316000FF5F05460E469046C8F101000FFA80F950
:103170004FF0010A4FEA480040420FFA80FB002757
:10318000444606EB080291B2A8B2039AFFF740FE4C
:10319000A6EB080291B2A8B2039AFFF739FEB1B2CA
:1031A00005EB080290B2039AFFF732FEB1B2A5EB2D
:1031B000080290B2039AFFF72BFE4EE0B9F1000F20
:1031C00009DB601E04B20BF102000FFA80FB09EB71
:1031D0000B000FFA80F9781C07B20AF102000FFA0F
:1031E00080FA09EB0A000FFA80F9321991B2EA1954
:1031F00090B2039AFFF70CFE321991B2EA1B90B21B
:10320000039AFFF705FE321B91B2EA1990B2039AB6
:10321000FFF7FEFD321B91B2EA1B90B2039AFFF753
:10322000F7FDF21991B22A1990B2039AFFF7F0FD57
:10323000F21991B22A1B90B2039AFFF7E9FDF21B33
:1032400091B22A1990B2039AFFF7E2FDF21B91B2F4
:103250002A1B90B2039AFFF7DBFDA742AEDBBDE865
:10326000FF9F2DE9FC5F05460E4617469946C7F1BC
:1032700001000FFA80FA4FF0010B7800404200B2D3
:1032800001904FF000083C46F21991B2A8B24A46AC
:1032900006E000007C000020780000207A0000207A
:1032A000FFF7B6FDF21B91B2A8B24A46FFF7B0FD98
:1032B000B1B2EA1990B24A46FFF7AAFDB1B2EA1BD1
:1032C00090B24A46FFF7A4FDB3B205EB070C1FFA14
:1032D0008CF2B1B2A5EB070C1FFA8CF0CDF8009080
:1032E000FFF78EFE68E0BAF1000F09DB601E04B242
:1032F0000198801C00B20190019850440FFA80FAA6
:1033000008F101000FFA80F80BF102000FFA80FBC0
:103310000AEB0B000FFA80FA06EB040C1FFA8CF391
:1033200005EB080C1FFA8CF206EB040C1FFA8CF16B
:10333000A5EB080C1FFA8CF0CDF80090FFF760FEAB
:10334000A6EB040C1FFA8CF3A5EB080C1FFA8CF209
:10335000A6EB040C1FFA8CF105EB080C1FFA8CF09D
:10336000CDF80090FFF74CFE06EB080C1FFA8CF32B
:10337000A5EB040C1FFA8CF206EB080C1FFA8CF17B
:1033800005EB040C1FFA8CF0CDF80090FFF738FE27
:10339000A6EB080C1FFA8CF3A5EB040C1FFA8CF2B9
:1033A000A6EB080C1FFA8CF105EB040C1FFA8CF04D
:1033B000CDF80090FFF724FEA04594DBBDE8FC9F0C
:1033C00030B587B005460C4601214020FDF7B7F91E
:1033D00000208DF81A008DF81B0003208DF81900CD
:1033E00002208DF818004FF4E040059005A9F94837
:1033F000FDF77EFB05220D21F648FDF704FC0522B2
:103400000C21F448FDF7FFFB05220E21F148FDF7E2
:10341000FAFB01214805FDF7EAF96846FDF786FF4A
:103420002020ADF80C000020ADF80400ADF800003D
:10343000ADF80E004FF48270ADF802002CB90020F8
:10344000ADF80600ADF8080019E0012C06D1002007
:10345000ADF806000120ADF8080010E0022C06D1FE
:103460000220ADF806000020ADF8080007E0032CAC
:1034700005D10220ADF806000120ADF808004FF498
:103480000070ADF80A000021D348FDF765FFD2486F
:10349000FDF71CFE6946D048FDF764FE0121CE48C9
:1034A000FDF75AFF07B030BD30B587B005460C4672
:1034B00000208DF81A008DF81B0003208DF81900EC
:1034C00002208DF81800D5B901212020FDF737F929
:1034D0004FF46070059005A9C048FDF709FB05226F
:1034E0000721BE48FDF78FFB05220821BB48FDF7E9
:1034F0008AFB05220921B948FDF785FB24E0012D4F
:1035000022D101212020FDF71AF901218020FDF7A9
:1035100016F9C020059005A9B048FDF7E9FAE802C0
:10352000059005A9AD48FDF7E3FA05220B21AB484C
:10353000FDF769FB05220621A948FDF764FB05227A
:103540000721A748FDF75FFB01210805FDF74FF9AB
:103550006846FDF7EBFE2020ADF80C000020ADF82A
:103560000400ADF80000ADF80E004FF48270ADF825
:1035700002002CB90020ADF80600ADF8080019E0F3
:10358000012C06D10020ADF806000120ADF808009E
:1035900010E0022C06D10220ADF806000020ADF8A4
:1035A000080007E0032C05D10220ADF80600012039
:1035B000ADF808004FF40070ADF80A00002189480A
:1035C000FDF7CAFE8748FDF781FD69468548FDF78E
:1035D000C9FD01218348FDF7BFFE07B030BD30B5FE
:1035E00087B005460C4600208DF81A008DF81B00A8
:1035F00003208DF8190002208DF81800CDB90121A3
:103600001020FDF79CF86420059005A97648FDF789
:103610006FFA052202217448FDF7F5FA05221146DA
:103620007148FDF7F0FA052206216F48FDF7EBFA25
:103630001BE0012D19D101211020FDF780F84FF476
:10364000E040059005A96848FDF752FA05220C21D3
:103650006548FDF7D8FA05220D216348FDF7D3FA36
:1036600005220E216048FDF7CEFA01214803FDF73F
:10367000BEF86846FDF75AFE2020ADF80C00002089
:10368000ADF80400ADF80000ADF80E004FF4827004
:10369000ADF802002CB90020ADF80600ADF8080026
:1036A00019E0012C06D10020ADF806000120ADF88C
:1036B000080010E0022C06D10220ADF80600002020
:1036C000ADF8080007E0032C05D10220ADF8060094
:1036D0000120ADF808004FF40070ADF80A00002199
:1036E0004248FDF739FE4148FDF7F0FC69463F4886
:1036F000FDF738FD01213D48FDF72EFE07B030BD36
:1037000030B587B005460C4600208DF81A008DF8BC
:103710001B0003208DF8190002208DF81800C5B990
:103720000121FDF70CF83820059005A93048FDF778
:10373000DFF9062203212E48FDF765FA062204214F
:103740002B48FDF760FA062205212948FDF75BFAB0
:103750001BE0012D19D101210420FCF7F0FF4FF4EB
:10376000E050059005A92348FDF7C2F906220A2179
:103770002048FDF748FA06220B211E48FDF743FAC0
:1037800006220C211B48FDF73EFA0121C803FDF774
:103790001DF86846FDF7CAFD2020ADF80C0000209A
:1037A000ADF80400ADF80000ADF80E004FF48270E3
:1037B000ADF802002CB90020ADF80600ADF8080005
:1037C0002BE0012C18D10020ADF806000120ADF847
:1037D000080022E00018024000540140001402409A
:1037E000001C024000500140001002400034014023
:1037F0000004024000080240022C06D10220ADF86D
:1038000006000020ADF8080007E0032C05D10220D7
:10381000ADF806000120ADF808004FF40070ADF8D7
:103820000A000021F648FDF797FDF548FDF74EFC2C
:103830006946F348FDF796FC0121F148FDF78CFD40
:1038400007B030BD30B587B005460C4600208DF876
:103850001A0001208DF81B0003208DF819000220AA
:103860008DF818001DBB0121FCF769FF0121042020
:10387000FCF765FF0C20059005A9E248FDF738F933
:103880004FF48060059005A9DF48FDF731F9052266
:103890000221DC48FDF7B7F905220321D948FDF7DD
:1038A000B2F905220A21D848FDF7ADF937E0012D1C
:1038B0001AD101210220FCF742FF4FF4604005902D
:1038C00005A9D148FDF714F905220D21CE48FDF7D1
:1038D0009AF905220E21CC48FDF795F905220F2112
:1038E000C948FDF790F91AE0022D18D1012108020C
:1038F000FCF725FF0D20059005A9C348FDF7F8F852
:1039000005220021C148FDF77EF905220221BF48AA
:10391000FDF779F905220321BC48FDF774F901216F
:103920008803FCF753FF6846FDF700FD2020ADF843
:103930000C000020ADF80400ADF80000ADF80E005A
:103940004FF48270ADF802002CB90020ADF80600EB
:10395000ADF8080019E0012C06D10020ADF80600F2
:103960000120ADF8080010E0022C06D10220ADF8CD
:1039700006000020ADF8080007E0032C05D1022066
:10398000ADF806000120ADF808004FF40070ADF866
:103990000A0000219E48FDF7DFFC9D48FDF796FBDD
:1039A00069469B48FDF7DEFB01219948FDF7D4FCF1
:1039B00007B030BD30B587B005460C4600208DF805
:1039C0001A008DF81B0003208DF8190002208DF8D5
:1039D0001800CDB901210846FCF7B1FEE0200590A2
:1039E00005A98C48FDF784F8052211468948FDF7A2
:1039F0000AF9052206218748FDF705F90522072166
:103A00008448FDF700F91AE0012D18D101210220A8
:103A1000FCF795FE3820059005A97B48FDF768F86E
:103A2000052203217848FDF7EEF8052204217648A7
:103A3000FDF7E9F8052211467348FDF7E4F8012186
:103A40000803FCF7D4FE6846FDF770FC2020ADF8B3
:103A50000C000020ADF80400ADF80000ADF80E0039
:103A60004FF48270ADF802002CB90020ADF80600CA
:103A7000ADF8080019E0012C06D10020ADF80600D1
:103A80000120ADF8080010E0022C06D10220ADF8AC
:103A900006000020ADF8080007E0032C05D1022045
:103AA000ADF806000120ADF808004FF40070ADF845
:103AB0000A0000215848FDF74FFC5748FDF706FB68
:103AC00069465548FDF74EFB01215348FDF744FC7C
:103AD00007B030BD70B504460D464F48844204D14E
:103AE00000212846FFF766FF26E04948844204D1BA
:103AF00000212846FFF7A6FE1EE04148844204D17B
:103B000000212846FFF7FCFD16E04448844204D11A
:103B100000212846FFF763FD0EE04148844204D1AE
:103B200000212846FFF7C0FC06E03E48844203D14E
:103B300000212846FFF744FC70BD70B504460D46D1
:103B400016463548844204D131462846FFF732FFF5
:103B500026E02F48844204D131462846FFF772FE02
:103B60001EE02748844204D131462846FFF7C8FDAD
:103B700016E02A48844204D131462846FFF72FFD3B
:103B80000EE02748844204D131462846FFF78CFCDA
:103B900006E02448844203D131462846FFF710FC52
:103BA00070BD70B504460D46A58100BF02212046B8
:103BB000FDF79CFC0028F9D000BF01212046FDF74D
:103BC00095FC0028F9D000BF80212046FDF78EFC2F
:103BD0000028F9D1A089C0B270BD2DE9F04180461E
:103BE0000D4616461F46002406E0295D4046FFF7B5
:103BF000D8FF3055601C84B2BC42F6DBBDE8F081D2
:103C0000003C004000080240000402400020024046
:103C10000038004000000240003001400034014004
:103C200000500140005401402DE9F04107460D4687
:103C30001646002405E0295D3846FFF7B2FF601CF8
:103C400084B2B442F7DBBDE8F0812DE9F041804653
:103C50000D4616461F46002406E031464046FFF753
:103C6000A0FF2855601C84B2BC42F6DBBDE8F081A1
:103C700070B504460D46A58100BF02212046FDF720
:103C800035FC0028F9D000BF01212046FDF72EFCAD
:103C90000028F9D000BF80212046FDF727FC00282E
:103CA000F9D1A08970BD2DE9F04180460D46164638
:103CB0001F46002408E035F814104046FFF7D8FFEF
:103CC00026F81400601C84B2BC42F4DBBDE8F0812D
:103CD0002DE9F04107460D461646002406E035F86A
:103CE00014103846FFF7C4FF601C84B2B442F6DB00
:103CF000BDE8F0812DE9F04180460D4616461F468D
:103D0000002407E031464046FFF7B2FF25F81400D3
:103D1000601C84B2BC42F5DBBDE8F0811CB501211A
:103D20004020FCF70CFD4FF4C040009000208DF8BF
:103D3000060001208DF8040000208DF80700032004
:103D40008DF8050069462048FCF7D2FE1CBD1CB565
:103D500001210846FCF7F3FC0120009000208DF8BB
:103D600006008DF804008DF8070003208DF805008B
:103D700069461648FCF7BCFE1CBD1448006900F0FB
:103D8000010080F0010030B91148007830B90120FD
:103D90000F490870704700200D4908700020F9E7AE
:103DA0000A48006900F0010080F0010038B10848BD
:103DB000007838B1002006490870012070470120C2
:103DC000034908700020F9E7001802400000024093
:103DD0009C00002070B52DED028B04203A4908802C
:103DE000022000F066F804203749891E08800A2066
:103DF00000F05FF8042034490880344D08E02800C2
:103E0000A5F1010504D1BFEE000ABDEC028B70BD27
:103E100008212D481A38FCF7CDFE0028EFD00024E9
:103E200003E0641C012000F044F8082126481A38F9
:103E3000FCF7C0FE0128F4D000EE104AB8EE400AAC
:103E4000DFED230A20EE208AB0EE480ADDE71CB53C
:103E500000F053F801210220FCF771FC00208DF8DE
:103E6000060002208DF8070003208DF805000120D0
:103E70008DF8040004200090694613481A38FCF7B6
:103E800037FE00208DF804000820009069460E4897
:103E90001A38FCF72DFE04200B490880FFF79AFF23
:103EA000B5EEC00AF1EE10FA01DB01201CBD0020C6
:103EB000FCE7084A126800FB02F100BF0A00A1F10A
:103EC0000101FBD1704700001A04024040420F007C
:103ED0007AC18C3CB000002010B535480068401C09
:103EE000334908603348006820B132480068401EFA
:103EF00030490860AFF3008010BD70B52E480078DF
:103F000000B170BD0120FCF766FA00BFFCF788FA2B
:103F10000028FBD0294800684FF47A72B0FBF2F118
:103F2000481EB0F1807F01D301201BE0481E4FF0F6
:103F3000E022506150170F22002807DA13071D0EE8
:103F40001F4B00F00F04241F1D5503E013071C0E28
:103F50001C4B1C5400BF00204FF0E0229061072052
:103F60001061002008B100BFFEE714480068164940
:103F7000B0FBF1F01549086001200F49087000BF3F
:103F8000BFE70D48007800B970474FF0E0200069A6
:103F900040F002004FF0E021086100BFF4E74FF06D
:103FA000E020006920F002004FF0E0210861704736
:103FB000A4000020A8000020AC000020C8000020C1
:103FC00018ED00E000E400E0C0C62D00B0000020C5
:103FD0002DE9F04104460D4616461F469FED370B6E
:103FE0002146284600F02AFA10B10120BDE8F081F0
:103FF0003A463146204601F07AF908B10120F5E74A
:104000006561267667760020F0E770B52DED028BAE
:104010000446B0EE408AB5EEC08AF1EE10FA06D33F
:104020009FED280AB4EEC08AF1EE10FA03DD0120FC
:10403000BDEC028B70BD9FED240A28EE000A9FEDB7
:10404000211AC0EE010A9FED200A30EE800ABCEE74
:10405000C00A10EE100A85B2258484ED078A217EFD
:104060002A46204601F04EFA0020E1E770B52DED1A
:10407000028B05460C46B4F57A7F02DBB4F5FA6F85
:1040800003DD0120BDEC028B70BDA4F57A7000EE5B
:10409000100AB8EEC00ADFED0B0A20EE200ADFEDB1
:1040A0000A0A80EE208A2C8485ED078A297E224622
:1040B000284601F027FA0020E4E700000000000095
:1040C000000049400000344300007A447FB50446B4
:1040D0000D466846FCF762FA4FF6FF70A860B4F12F
:1040E000804F02D0C648844207D1039828604FF021
:1040F000FF306860002004B070BDC24884420BD01D
:10410000C148844208D0C148844205D0C048844296
:1041100002D0C048844206D1019828604FF6FF7053
:1041200068600020E7E7BC48844211D0BB48844265
:104130000ED0BB4884420BD0BA48844208D0BA485B
:10414000844205D0B948844202D0B948844206D19D
:10415000039828604FF6FF7068600020CBE70220CC
:10416000C9E710B52DED068B0446B0EE408AF0EE9F
:10417000608A206802F0FBFE41EC190B53EC182B0F
:1041800002F008FF07D200202061E0606061032098
:10419000BDEC068B10BD9FEDA70B53EC102B51EC23
:1041A000180B02F07BFE05D100202061E060606109
:1041B0000420EDE76068B0F5803F02D26068401CE3
:1041C00060600020206100BF2069401C2168B1FBB5
:1041D000F0F0E060E06802F0CAFE41EC1A0B53EC2C
:1041E000182B02F003FD41EC190B02F093FEE06086
:1041F0002069401C20616168E068884204D9A06899
:10420000401C21698142DFD9A068401C216981429C
:1042100005D900202061E06060610420B8E751EC1E
:10422000180B02F077FE60610020B1E710B504467C
:104230007448844204D101210846FCF7D8FA66E0AC
:10424000B4F1804F04D101210846FCF7BFFA5EE0CB
:104250007148844204D101210220FCF7B7FA56E0EC
:104260006E48844204D101210420FCF7AFFA4EE0ED
:104270006348844204D101210820FCF7A7FA46E0F4
:104280006748844204D101211020FCF79FFA3EE0E8
:104290006448844204D101212020FCF797FA36E0DB
:1042A0005948844204D101210220FCF7A0FA2EE0F3
:1042B0005648844204D101210804FCF798FA26E00C
:1042C0005348844204D101214804FCF790FA1EE0CF
:1042D0005048844204D101218804FCF788FA16E092
:1042E0005148844204D101214020FCF76FFA0EE0CE
:1042F0004E48844204D101218020FCF767FA06E091
:104300004B48844203D101218015FCF75FFA00205D
:1043100010BD10B504463B48844204D10021012061
:10432000FCF765FA69E0B4F1804F04D10021012067
:10433000FCF74CFA61E03848844204D100210220A5
:10434000FCF744FA59E03548844204D100210420A6
:10435000FCF73CFA51E02A48844204D100210820AD
:10436000FCF734FA49E02E48844204D100211020A1
:10437000FCF72CFA41E02B48844204D10021202094
:10438000FCF724FA39E02048844204D100210220BD
:10439000FCF72DFA31E01D48844205D100214FF48D
:1043A0008030FCF724FA28E01948844205D1002126
:1043B0004FF40030FCF71BFA1FE01648844205D189
:1043C00000214FF48020FCF712FA16E016488442D0
:1043D00004D100214020FCF7F9F90EE01348844293
:1043E00004D100218020FCF7F1F906E01048844256
:1043F00003D100218015FCF7E9F9002010BD000071
:10440000000C004000000140000401400040014059
:104410000044014000480140000400400008004002
:10442000001000400014004000180040001C004034
:1044300000200040000000000000000030B52DED1D
:10444000048B89B005460C46B0EE408AF0EE608AD7
:10445000FA48854202D0FA48854204D1042009B0C6
:10446000BDEC048B30BD256069462846FFF72EFE63
:10447000009802F07CFD41EC190B53EC182B02F074
:1044800089FD01D20120EAE79FEDEE0B53EC102BE2
:1044900051EC180B02F002FD01D10220DFE7B0EE73
:1044A000480AF0EE680A6846FFF75BFE039808B911
:1044B0000120D4E751EC180B02F02CFDE06053EC26
:1044C000182B9FEDE20B51EC100B02F08FFB41EC2F
:1044D000190B02F01FFD2061039860600498A06032
:1044E0002846FFF7A3FE0498401E80B2ADF81800DE
:1044F0000020ADF81A000398401E07900020ADF888
:1045000020008DF8220006A92846FDF7CCF80121ED
:104510002846FDF751F90020A1E77CB506460D4677
:1045200002208DF8040000208DF806008DF80700A9
:1045300003208DF8050056BB15B1012D23D110E0E5
:1045400001210846FCF7FBF809220721C148FCF7C6
:104550005AFB802000906946BE48FCF7C9FA002447
:1045600013E001212020FCF7EAF809221146BA489D
:10457000FCF749FB4FF4007000906946B648FCF721
:10458000B7FA002401E0062400BF00BF01E00524C3
:1045900000BF00BF20467CBD7CB506460D4602200C
:1045A0008DF8040000208DF806008DF80700032028
:1045B0008DF8050056BB15B1012D23D110E0012166
:1045C0000846FCF7BCF809220621A248FCF71BFBB1
:1045D0004020009069469F48FCF78AFA002413E0C7
:1045E00001212020FCF7ABF8092208219A48FCF7AA
:1045F0000AFB4FF48070009069469748FCF778FA00
:10460000002401E0062400BF00BF01E0052400BF34
:1046100000BF20467CBD7CB506460D4602208DF8C5
:10462000040000208DF806008DF8070003208DF8A7
:10463000050016B1012E57D12AE015B1012D23D165
:1046400011E001210220FCF77AF809220E218348AB
:10465000FCF7D9FA4FF48040009069467F48FCF798
:1046600047FA002412E001218020FCF768F80922B3
:1046700006217B48FCF7C7FA40200090694678483D
:10468000FCF736FA002401E0062400BF00BF2DE04D
:1046900015B1012D24D111E001210220FCF74FF8C2
:1046A00009220F216D48FCF7AEFA4FF4004000904C
:1046B00069466A48FCF71CFA002413E001218020B7
:1046C000FCF73DF8092211466548FCF79CFA4FF4C7
:1046D0000070009069466248FCF70AFA002401E085
:1046E000062400BF00BF01E0052400BF00BF204634
:1046F0007CBD7CB506460D4602208DF804000020E6
:104700008DF806008DF8070003208DF8050056BBD4
:1047100015B1012D23D111E001210220FCF70FF882
:10472000032209214D48FCF76EFA4FF40070009007
:1047300069464A48FCF7DCF9002412E001212020F8
:10474000FBF7FDFF032207214348FCF75CFA8020BA
:10475000009069464048FCF7CBF9002401E00624AC
:1047600000BF00BF01E0052400BF00BF20467CBDA4
:104770007CB506460D4602208DF8040000208DF819
:1047800006008DF8070003208DF8050056BB15B113
:10479000012D23D111E001210220FBF7D0FF0322DC
:1047A00008212E48FCF72FFA4FF4807000906946DC
:1047B0002A48FCF79DF9002412E001212020FBF794
:1047C000BEFF032206212448FCF71DFA402000907A
:1047D00069462148FCF78CF9002401E0062400BF5B
:1047E00000BF01E0052400BF00BF20467CBD7CB5B2
:1047F00006460D4602208DF8040000208DF80600C4
:104800008DF8070003208DF8050016B1012E68D140
:104810003DE015B1012D36D124E001210846FBF71A
:104820008EFF032202210B48FCF7EDF904200090D3
:1048300069460848FCF75CF9002426E000100040B7
:104840000014004000000000000000000000000014
:1048500080842E4100000240001402400004024007
:10486000001C024001211020FBF769FF03220521F3
:10487000FA48FCF7C8F9202000906946F748FCF791
:1048800037F9002401E0062400BF00BF2BE015B17A
:10489000012D22D110E001210846FBF750FF032231
:1048A0001146EF48FCF7AFF9082000906946EC4844
:1048B000FCF71EF9002412E001211020FBF73FFF56
:1048C00003220621E548FCF79EF940200090694646
:1048D000E248FCF70DF9002401E0062400BF00BF08
:1048E00001E0052400BF00BF20467CBD7CB5064624
:1048F0000D4602208DF8040000208DF806008DF88A
:10490000070003208DF8050036B1012E2ED0022EAF
:1049100056D0032E7BD17FE015B1012D22D110E0BE
:1049200001210420FBF70BFF03220621CD48FCF7F1
:104930006AF9402000906946CA48FCF7D9F800247B
:1049400012E001210802FBF7FAFE03220521C64806
:10495000FCF759F9202000906946C348FCF7C8F8D5
:10496000002401E0062400BF00BF82E015B1012D44
:1049700022D110E001210420FBF7E1FE03220721F0
:10498000B848FCF740F9802000906946B548FCF72C
:10499000AFF8002412E001210802FBF7D0FE032249
:1049A0000621B148FCF72FF9402000906946AE4837
:1049B000FCF79EF8002401E0062400BF00BF58E089
:1049C00015B1012D24D111E001210420FBF7B7FE20
:1049D00003220821A348FCF716F94FF480700090D9
:1049E0006946A048FCF784F8002413E0012108027E
:1049F000FBF7A5FE032207219B48FCF704F9802062
:104A0000009069469848FCF773F8002402E02EE015
:104A1000062400BF00BF2CE015B1012D23D111E009
:104A200001210420FBF78BFE032209218D48FCF7AE
:104A3000EAF84FF40070009069468A48FCF758F88D
:104A4000002412E001210802FBF779FE0322022173
:104A50008548FCF7D8F80420009069468248FCF7A6
:104A600047F8002401E0062400BF00BF01E0052450
:104A700000BF00BF20467CBD7CB506460D46022027
:104A80008DF8040000208DF806008DF80700032043
:104A90008DF8050036B1012E2FD0022E58D0032EEE
:104AA0007DD181E015B1012D23D110E0012108460F
:104AB000FBF745FE022200216948FCF7A4F801201B
:104AC000009069466648FCF713F8002413E00121C2
:104AD0008020FBF734FE02220A216448FCF793F899
:104AE0004FF48060009069466048FCF701F80024AC
:104AF00001E0062400BF00BF82E015B1012D23D1E3
:104B000010E001210846FBF71AFE02220121544859
:104B1000FCF779F80220009069465148FBF7E8FF5E
:104B2000002413E001218020FBF709FE02220B2163
:104B30004E48FCF768F84FF40060009069464B4817
:104B4000FBF7D6FF002401E0062400BF00BF57E0BA
:104B500015B1012D24D110E001210846FBF7EFFD2E
:104B6000022211463E48FCF74EF8042000906946A8
:104B70003B48FBF7BDFF002414E001218020FBF738
:104B8000DEFD02220C213948FCF73DF84FF480503D
:104B9000009069463548FBF7ABFF002402E02DE0AA
:104BA000062400BF00BF2BE015B1012D22D110E07B
:104BB00001210846FBF7C3FD022203212848FCF728
:104BC00022F80820009069462548FBF791FF002451
:104BD00012E001210802FBF7B2FD02220021224867
:104BE000FCF711F80120009069461F48FBF780FF91
:104BF000002401E0062400BF00BF01E0052400BF3F
:104C000000BF20467CBD7CB506460D4602208DF8CF
:104C1000040000208DF806008DF8070003208DF8B1
:104C2000050036B1012E3BD0022E64D0032E78D180
:104C30008EE015B1012D2FD11CE001210220FBF7E0
:104C40007EFD022206210A48FBF7DDFF402000908E
:104C500069460748FBF74CFF00241FE000100240A4
:104C6000000002400008024000200240001C0240F8
:104C70000004024001210820FBF761FD02220C2103
:104C8000F748FBF7C0FF4FF4805000906946F448A6
:104C9000FBF72EFF002401E0062400BF00BF85E0E3
:104CA00015B1012D23D110E001210220FBF747FDB2
:104CB00002220721EB48FBF7A6FF802000906946FF
:104CC000E848FBF715FF002413E001210820FBF75B
:104CD00036FD02220D21E248FBF795FF4FF400500C
:104CE00000906946DE48FBF703FF002401E006243C
:104CF00000BF00BF5AE015B1012D25D112E00121FE
:104D00000220FBF71CFD02220821D648FBF77BFF9F
:104D10004FF4807000906946D248FBF7E9FE00240A
:104D200014E041E001210820FBF709FD02220E21D9
:104D3000CB48FBF768FF4FF4804000906946C848B5
:104D4000FBF7D6FE002401E0062400BF00BF2DE0E3
:104D500015B1012D24D111E001210220FBF7EFFC58
:104D600002220921BF48FBF74EFF4FF4007000906C
:104D70006946BC48FBF7BCFE002413E00121082073
:104D8000FBF7DDFC02220F21B548FBF73CFF4FF497
:104D9000004000906946B248FBF7AAFE002401E0FB
:104DA000062400BF00BF01E0052400BF00BF20466D
:104DB0007CBD7CB506460D4602208DF8040000201F
:104DC0008DF806008DF8070003208DF8050036B138
:104DD000012E41D0022E7ED0032E77D1A6E025B140
:104DE000012D13D0022D33D121E001210846FBF71C
:104DF000A6FC022206219C48FBF705FF40200090FC
:104E000069469948FBF774FE002423E00121022043
:104E1000FBF795FC022204219248FBF7F4FE1020D8
:104E2000009069468F48FBF763FE002412E00121E1
:104E30000420FBF784FC022206218C48FBF7E3FEEA
:104E40004020009069468948FBF752FE002401E0AB
:104E5000062400BF00BF96E025B1012D13D0022D1E
:104E600035D121E001210846FBF769FC0222072128
:104E70007D48FBF7C8FE8020009069467A48FBF722
:104E800037FE002425E001210220FBF758FC022216
:104E900005217448FBF7B7FE202000906946714851
:104EA000FBF726FE002414E001210420FBF747FC59
:104EB000022207216D48FBF7A6FE8020009069467C
:104EC0006A48FBF715FE002403E004E059E00624DD
:104ED00000BF00BF57E015B1012D23D110E0012123
:104EE0000220FBF72CFC022200215E48FBF78BFE20
:104EF0000120009069465B48FBF7FAFD002413E0AF
:104F000001210420FBF71BFC022208215748FBF774
:104F10007AFE4FF48070009069465448FBF7E8FD34
:104F2000002401E0062400BF00BF2CE015B1012DD4
:104F300023D110E001210220FBF701FC0222012114
:104F40004848FBF760FE0220009069464548FBF7A1
:104F5000CFFD002413E001210420FBF7F0FB022227
:104F600009214248FBF74FFE4FF40070009069465C
:104F70003E48FBF7BDFD002401E0062400BF00BF52
:104F800001E0052400BF00BF20467CBD7CB506467D
:104F90000D4602208DF8040000208DF806008DF8E3
:104FA000070003208DF8050036B1012E42D0022EF5
:104FB00075D0032E6ED19DE025B1012D13D0022DA9
:104FC00034D121E001210846FBF7B9FB0122002181
:104FD0002548FBF718FE0120009069462248FBF7A0
:104FE00087FD002424E001210846FBF7A8FB0122ED
:104FF00005211D48FBF707FE2020009069461A484E
:10500000FBF776FD002413E001210846FBF797FB30
:1050100001220F211448FBF7F6FD4FF400400090E9
:1050200069461148FBF764FD002401E0062400BF37
:1050300000BF8CE015B1012D2DD119E001210846EA
:10504000FBF77DFB012211460748FBF7DCFD022040
:10505000009069460448FBF74BFD00241DE000006A
:10506000000C024000040240000002400008024020
:1050700001210220FBF763FB01220321F848FBF723
:10508000C2FD082000906946F548FBF731FD002479
:1050900003E004E059E0062400BF00BF57E015B16B
:1050A000012D23D110E001210846FBF748FB012226
:1050B0000221EC48FBF7A7FD042000906946E9486F
:1050C000FBF716FD002413E001210220FBF737FB5C
:1050D00001220A21E248FBF796FD4FF48060009020
:1050E0006946DF48FBF704FD002401E0062400BF09
:1050F00000BF2CE015B1012D23D110E0012108469D
:10510000FBF71DFB01220321D648FBF77CFD08209D
:1051100000906946D348FBF7EBFC002413E0012123
:105120000220FBF70CFB01220B21CD48FBF76BFDA6
:105130004FF4006000906946C948FBF7D9FC002491
:1051400001E0062400BF00BF01E0052400BF00BF4E
:1051500020467CBD7CB506460D4602208DF8040035
:1051600000208DF806008DF8070003208DF805005B
:1051700036B1012E30D0022E5AD0032E7DD185E0DB
:1051800015B1012D24D111E001210846FBF7D7FA12
:1051900001220821B348FBF736FD4FF480700090E0
:1051A0006946B048FBF7A4FC002413E0012110205D
:1051B000FBF7C5FA01220921AB48FBF724FD4FF4A8
:1051C000007000906946A848FBF792FC002401E0BB
:1051D000062400BF00BF87E015B1012D24D111E0E6
:1051E00001210846FBF7ABFA012209219D48FBF794
:1051F0000AFD4FF40070009069469A48FBF778FC6E
:10520000002413E001211020FBF799FA01220A2162
:105210009548FBF7F8FC4FF480600090694692488F
:10522000FBF766FC002401E0062400BF00BF5BE042
:1052300015B1012D26D111E001210846FBF77FFAB7
:1052400001220A218748FBF7DEFC4FF480600090C2
:1052500069468448FBF74CFC002415E0012110202E
:10526000FBF76DFA01220D217F48FBF7CCFC4FF4D0
:105270000050009069467C4800E033E0FBF738FCC2
:10528000002401E0062400BF00BF2DE015B1012D70
:1052900024D111E001210846FBF751FA01220B212C
:1052A0007048FBF7B0FC4FF40060009069466D4811
:1052B000FBF71EFC002413E001211020FBF73FFA4E
:1052C00001220E216848FBF79EFC4FF480400090BD
:1052D00069466548FBF70CFC002401E0062400BF8A
:1052E00000BF01E0052400BF00BF20467CBD70B5B3
:1052F00004460D4616465D492068884204D1314671
:105300002846FFF727FF70BD2068B0F1804F04D119
:1053100031462846FFF73AFEF5E7554920688842AE
:1053200004D131462846FFF744FDECE75149206897
:10533000884204D131462846FFF765FCE3E74E4931
:105340002068884204D131462846FFF795FBDAE70A
:105350004A492068884204D131462846FFF7C6FAF8
:10536000D1E747492068884204D131462846FFF7F3
:105370003EFAC8E743492068884204D131462846AE
:10538000FFF7F6F9BFE740492068884204D131466B
:105390002846FFF7AEF9B6E73C492068884204D1B9
:1053A00031462846FFF737F9ADE73949206888428A
:1053B00004D131462846FFF7EFF8A4E735492068C5
:1053C000884204D131462846FFF7A7F89BE704201E
:1053D00099E770B586B004460E4615466068401ED3
:1053E000A84202D2032006B070BD03957020ADF82C
:1053F00004000120ADF806000220ADF8100036B11F
:10540000012E0DD0022E14D0032E24D11AE001A9B2
:105410002068FCF7DDF908212068FCF766FB1BE03B
:1054200001A92068FCF70DFA08212068FCF766FB4B
:1054300012E001A92068FCF751FA08212068FCF766
:105440006AFB09E001A92068FCF7AEFA0821206890
:10545000FCF76AFB00E000BF00BF0020C3E70000CC
:105460000004024000000240001002400000014021
:105470000004004000080040000C0040000401400F
:105480000040014000440140004801400018004035
:10549000001C00400020004070B52DED028B04463A
:1054A0000D46B0EE408A9FED230AB4EEC08AF1EEBD
:1054B00010FA07DD294620466268FFF78AFFBDEC37
:1054C000028B70BDB5EEC08AF1EE10FA05D800224D
:1054D00029462046FFF77DFFF1E76068401E00EE99
:1054E000100AB8EE400A20EE080ABCEEC00A10EE20
:1054F000100A6421B0FBF1F6324629462046FFF738
:1055000068FFDCE72DE9F04104460E4615462069A8
:10551000A84202D20320BDE8F0816068401E6843C3
:105520002169B0FBF1F73A4631462046FFF751FFBB
:10553000F1E700000000C84210B500F0E3FAFDF703
:105540001DFC0320FDF78AFC4AF25420FDF7C4FA43
:10555000FEF7E4FBFEF7D1FC4FF416520121F948A7
:10556000FCF7FBFF012300229907F748FEF730FD07
:1055700010BD00B52DED048B85B0FEF768FC68B951
:1055800008E0F248006880F48040F0490860642038
:1055900000F0CCF9EE4800680128F2D040F21D502E
:1055A0000021EC4BECA2CDE9001082214120FDF757
:1055B000DEFC1AE0FEF70EFCB0EE408A18EE100A90
:1055C00001F078FD41EC190B53EC192BE7A102A86F
:1055D00000F032FB40F21D500021DE4B02AACDE963
:1055E0000010B4214120FDF7C2FCD9480068012811
:1055F000E0D005B0BDEC048B00BD10B51AE09FED06
:10560000DC0AD148FEF701FD4FF4FA6000F08EF994
:105610009FEDD80ACC48FEF7F8FC4FF4FA6000F092
:1056200085F99FEDD50AC848FEF7EFFC4FF4FA6004
:1056300000F07CF9D14800680128E0D010BD10B519
:105640001CE0CF480068012809D14FF4C040BF4991
:10565000091D0880CBA1BB48FDF739F90BE0C8480C
:10566000006840B94FF4C040B849891D0880C6A100
:10567000B448FDF72CF90020C4490860C34800680D
:105680000128DED04FF4FA7000F050F910BD10B5CB
:10569000044684B1012C04D0022C05D0032C09D17E
:1056A00005E0FFF766FF07E0FFF7A7FF04E0FFF75D
:1056B000C6FF01E000BF00BF00BF10BD1CB5FFF773
:1056C0003BFF40F21D500021A24BB1A2CDE90010DA
:1056D00064214120FDF74BFC40F21D5000219D4B01
:1056E000AEA2CDE9001096214120FDF740FC06E076
:1056F00097480068FFF7CBFF642000F017F9F7E741
:105700001CB50446002C7DD0012C04D0022C2BD0DB
:10571000032C7ED151E04AF2542000908D4B9CA284
:10572000642101904120FDF722FC4AF254200090B0
:10573000884B9AA2962101904120FDF718FC4AF26D
:1057400054200090834B9AA2822101904120FDF7C2
:105750000EFC4AF2542000907E4B99A282210190C7
:105760004120FDF704FC75E04AF254200090794B8B
:1057700087A2642101904120FDF7F9FB4AF25420F1
:105780000090744B85A2962101904120FDF7EFFB1C
:105790004AF2542000906F4B6FA282210190412069
:1057A000FDF7E5FB4AF2542000906A4B84A2822167
:1057B00001904120FDF7DBFB4CE04AF254200090C1
:1057C000644B73A2642101904120FDF7D0FB4AF2A3
:1057D000542000905F4B60A2822101904120FDF790
:1057E000C6FB4AF2542000905A4B71A282210190CC
:1057F0004120FDF7BCFB4AF254200090554B67A2B4
:10580000962101E006E004E001904120FDF7AFFBA6
:1058100020E000BF4AF2542000904E4B64A2822147
:1058200001904120FDF7A3FB4AF254200090494B20
:1058300049A2822101904120FDF799FB40F21D50C1
:105840000021444B55A2CDE9001096214120FDF7DF
:105850008EFB00BF00BF1CBD1CB50446612C0BD1E4
:1058600001203B4908604949086039480068FFF752
:1058700047FF3448FDF713F8622C1ED1022034494B
:1058800008603E48006818B901203C49086002E001
:1058900000203A4908602E480068FFF731FF40F2C7
:1058A0001D5000212B4B42A2CDE900108221412046
:1058B000FDF75DFB2348FCF7F2FF632C21D10320A9
:1058C0002349086001203149086021480068FFF73A
:1058D00017FF40F21D5000211E4B39A2CDE90010E8
:1058E00082214120FDF743FB2548006818B90120BB
:1058F0002349086002E00020214908601148FCF7B4
:10590000CEFF642C05D10420114908600D48FCF736
:10591000C6FF652C09D100200D49086008460068C3
:10592000FFF7EEFE0748FCF7BAFF1CBD08B5274994
:105930000968009100BF25490968009A891A8142C7
:10594000F9D308BD001001404002002014180240A5
:10595000B40000208C00002044697374616E63659C
:105960002053656E73696E670000000025660000B5
:10597000000000000000B44200003443BC000020DE
:10598000B80000204F4E000046460000C000002036
:1059900057656C636F6D65210000000053656C6591
:1059A000637420616E204F7074696F6E0000000098
:1059B000536572766F20436F6E74726F6C000000D7
:1059C0004C656420436F6E74726F6C00A4000020FD
:1059D000704700BFFEE700BFFEE700BFFEE700BF65
:1059E000FEE7704770477047704710B5FEF774FACE
:1059F00010BD00000CB500200190009083480068A5
:105A000040F480308149086000BF8048006800F49D
:105A1000003000900198401C0190009818B901983E
:105A2000B0F5A04FF1D17948006800F4003010B112
:105A30000120009001E0002000900098012860D132
:105A400072484030006840F0805070494031086032
:105A50006F48006840F440406D4908606B4808306A
:105A600000686A49083108600846006840F4004050
:105A700008600846006840F4A05008606548091FA7
:105A80000860081F006840F08070091F086000BFB0
:105A90005E48006800F000700028F9D05C4800689B
:105AA00040F480305A49086000BF5948406800F40B
:105AB00080300028F9D05648006840F4003054493E
:105AC000086000BF5248406800F400300028F9D058
:105AD00040F20570504908604C480830006820F0DA
